{
  "contractName": "RingBNB",
  "abi": [
    {
      "inputs": [],
      "payable": false,
      "stateMutability": "nonpayable",
      "type": "constructor"
    },
    {
      "anonymous": false,
      "inputs": [
        {
          "indexed": false,
          "internalType": "address",
          "name": "_address",
          "type": "address"
        },
        {
          "indexed": false,
          "internalType": "uint256",
          "name": "_ringIndex",
          "type": "uint256"
        }
      ],
      "name": "onInvest",
      "type": "event"
    },
    {
      "anonymous": false,
      "inputs": [
        {
          "indexed": false,
          "internalType": "uint256",
          "name": "_indexRing",
          "type": "uint256"
        }
      ],
      "name": "onRingComplete",
      "type": "event"
    },
    {
      "anonymous": false,
      "inputs": [
        {
          "indexed": true,
          "internalType": "address",
          "name": "user",
          "type": "address"
        }
      ],
      "name": "onWithdrawn",
      "type": "event"
    },
    {
      "constant": true,
      "inputs": [],
      "name": "AMOUNT_BY_EARTH",
      "outputs": [
        {
          "internalType": "uint256",
          "name": "",
          "type": "uint256"
        }
      ],
      "payable": false,
      "stateMutability": "view",
      "type": "function"
    },
    {
      "constant": true,
      "inputs": [],
      "name": "AMOUNT_BY_FIRE",
      "outputs": [
        {
          "internalType": "uint256",
          "name": "",
          "type": "uint256"
        }
      ],
      "payable": false,
      "stateMutability": "view",
      "type": "function"
    },
    {
      "constant": true,
      "inputs": [],
      "name": "AMOUNT_BY_WATER",
      "outputs": [
        {
          "internalType": "uint256",
          "name": "",
          "type": "uint256"
        }
      ],
      "payable": false,
      "stateMutability": "view",
      "type": "function"
    },
    {
      "constant": true,
      "inputs": [],
      "name": "DEVELOPER_RATE",
      "outputs": [
        {
          "internalType": "uint256",
          "name": "",
          "type": "uint256"
        }
      ],
      "payable": false,
      "stateMutability": "view",
      "type": "function"
    },
    {
      "constant": true,
      "inputs": [],
      "name": "MARKETING_RATE",
      "outputs": [
        {
          "internalType": "uint256",
          "name": "",
          "type": "uint256"
        }
      ],
      "payable": false,
      "stateMutability": "view",
      "type": "function"
    },
    {
      "constant": true,
      "inputs": [],
      "name": "MAX_PARTICIPANT_EARTH",
      "outputs": [
        {
          "internalType": "uint8",
          "name": "",
          "type": "uint8"
        }
      ],
      "payable": false,
      "stateMutability": "view",
      "type": "function"
    },
    {
      "constant": true,
      "inputs": [],
      "name": "MAX_PARTICIPANT_FIRE",
      "outputs": [
        {
          "internalType": "uint8",
          "name": "",
          "type": "uint8"
        }
      ],
      "payable": false,
      "stateMutability": "view",
      "type": "function"
    },
    {
      "constant": true,
      "inputs": [],
      "name": "MAX_PARTICIPANT_WATER",
      "outputs": [
        {
          "internalType": "uint8",
          "name": "",
          "type": "uint8"
        }
      ],
      "payable": false,
      "stateMutability": "view",
      "type": "function"
    },
    {
      "constant": true,
      "inputs": [],
      "name": "MAX_TOP_REFERENTS",
      "outputs": [
        {
          "internalType": "uint256",
          "name": "",
          "type": "uint256"
        }
      ],
      "payable": false,
      "stateMutability": "view",
      "type": "function"
    },
    {
      "constant": true,
      "inputs": [],
      "name": "PENALTY_STEP",
      "outputs": [
        {
          "internalType": "uint256",
          "name": "",
          "type": "uint256"
        }
      ],
      "payable": false,
      "stateMutability": "view",
      "type": "function"
    },
    {
      "constant": true,
      "inputs": [],
      "name": "PERCENTS_DIVIDER",
      "outputs": [
        {
          "internalType": "uint256",
          "name": "",
          "type": "uint256"
        }
      ],
      "payable": false,
      "stateMutability": "view",
      "type": "function"
    },
    {
      "constant": true,
      "inputs": [],
      "name": "REFERRAL_REWARD_RATE",
      "outputs": [
        {
          "internalType": "uint256",
          "name": "",
          "type": "uint256"
        }
      ],
      "payable": false,
      "stateMutability": "view",
      "type": "function"
    },
    {
      "constant": true,
      "inputs": [],
      "name": "REFERRER_CODE",
      "outputs": [
        {
          "internalType": "uint256",
          "name": "",
          "type": "uint256"
        }
      ],
      "payable": false,
      "stateMutability": "view",
      "type": "function"
    },
    {
      "constant": true,
      "inputs": [],
      "name": "RESERVE_RATE",
      "outputs": [
        {
          "internalType": "uint256",
          "name": "",
          "type": "uint256"
        }
      ],
      "payable": false,
      "stateMutability": "view",
      "type": "function"
    },
    {
      "constant": true,
      "inputs": [],
      "name": "REWARD_BY_EARTH",
      "outputs": [
        {
          "internalType": "uint256",
          "name": "",
          "type": "uint256"
        }
      ],
      "payable": false,
      "stateMutability": "view",
      "type": "function"
    },
    {
      "constant": true,
      "inputs": [],
      "name": "REWARD_BY_FIRE",
      "outputs": [
        {
          "internalType": "uint256",
          "name": "",
          "type": "uint256"
        }
      ],
      "payable": false,
      "stateMutability": "view",
      "type": "function"
    },
    {
      "constant": true,
      "inputs": [],
      "name": "REWARD_BY_WATER",
      "outputs": [
        {
          "internalType": "uint256",
          "name": "",
          "type": "uint256"
        }
      ],
      "payable": false,
      "stateMutability": "view",
      "type": "function"
    },
    {
      "constant": true,
      "inputs": [
        {
          "internalType": "address",
          "name": "",
          "type": "address"
        }
      ],
      "name": "address2index",
      "outputs": [
        {
          "internalType": "uint256",
          "name": "",
          "type": "uint256"
        }
      ],
      "payable": false,
      "stateMutability": "view",
      "type": "function"
    },
    {
      "constant": true,
      "inputs": [],
      "name": "developerAccount",
      "outputs": [
        {
          "internalType": "address payable",
          "name": "",
          "type": "address"
        }
      ],
      "payable": false,
      "stateMutability": "view",
      "type": "function"
    },
    {
      "constant": true,
      "inputs": [
        {
          "internalType": "uint256",
          "name": "",
          "type": "uint256"
        }
      ],
      "name": "index2Investment",
      "outputs": [
        {
          "internalType": "uint256",
          "name": "indexInvestment",
          "type": "uint256"
        },
        {
          "internalType": "uint256",
          "name": "indexInvestor",
          "type": "uint256"
        },
        {
          "internalType": "uint256",
          "name": "ring",
          "type": "uint256"
        },
        {
          "internalType": "uint256",
          "name": "investmentDate",
          "type": "uint256"
        },
        {
          "internalType": "bool",
          "name": "payed",
          "type": "bool"
        }
      ],
      "payable": false,
      "stateMutability": "view",
      "type": "function"
    },
    {
      "constant": true,
      "inputs": [
        {
          "internalType": "uint256",
          "name": "",
          "type": "uint256"
        }
      ],
      "name": "index2Investor",
      "outputs": [
        {
          "internalType": "address payable",
          "name": "addr",
          "type": "address"
        },
        {
          "internalType": "uint256",
          "name": "referrer",
          "type": "uint256"
        }
      ],
      "payable": false,
      "stateMutability": "view",
      "type": "function"
    },
    {
      "constant": true,
      "inputs": [],
      "name": "insuranceFunds",
      "outputs": [
        {
          "internalType": "uint256",
          "name": "",
          "type": "uint256"
        }
      ],
      "payable": false,
      "stateMutability": "view",
      "type": "function"
    },
    {
      "constant": true,
      "inputs": [],
      "name": "lastPayment",
      "outputs": [
        {
          "internalType": "uint256",
          "name": "",
          "type": "uint256"
        }
      ],
      "payable": false,
      "stateMutability": "view",
      "type": "function"
    },
    {
      "constant": true,
      "inputs": [],
      "name": "latestReferredCode",
      "outputs": [
        {
          "internalType": "uint256",
          "name": "",
          "type": "uint256"
        }
      ],
      "payable": false,
      "stateMutability": "view",
      "type": "function"
    },
    {
      "constant": true,
      "inputs": [],
      "name": "marketingAccount",
      "outputs": [
        {
          "internalType": "address payable",
          "name": "",
          "type": "address"
        }
      ],
      "payable": false,
      "stateMutability": "view",
      "type": "function"
    },
    {
      "constant": true,
      "inputs": [
        {
          "internalType": "uint8",
          "name": "",
          "type": "uint8"
        }
      ],
      "name": "plan2amount",
      "outputs": [
        {
          "internalType": "uint256",
          "name": "",
          "type": "uint256"
        }
      ],
      "payable": false,
      "stateMutability": "view",
      "type": "function"
    },
    {
      "constant": true,
      "inputs": [],
      "name": "reserveAccount",
      "outputs": [
        {
          "internalType": "address payable",
          "name": "",
          "type": "address"
        }
      ],
      "payable": false,
      "stateMutability": "view",
      "type": "function"
    },
    {
      "constant": true,
      "inputs": [],
      "name": "totalFundsTopReferents",
      "outputs": [
        {
          "internalType": "uint256",
          "name": "",
          "type": "uint256"
        }
      ],
      "payable": false,
      "stateMutability": "view",
      "type": "function"
    },
    {
      "constant": true,
      "inputs": [],
      "name": "totalStaked",
      "outputs": [
        {
          "internalType": "uint256",
          "name": "",
          "type": "uint256"
        }
      ],
      "payable": false,
      "stateMutability": "view",
      "type": "function"
    },
    {
      "constant": false,
      "inputs": [],
      "name": "withdraw",
      "outputs": [],
      "payable": false,
      "stateMutability": "nonpayable",
      "type": "function"
    },
    {
      "constant": false,
      "inputs": [
        {
          "internalType": "uint8",
          "name": "_plan",
          "type": "uint8"
        },
        {
          "internalType": "uint256",
          "name": "_referrer",
          "type": "uint256"
        }
      ],
      "name": "invest",
      "outputs": [],
      "payable": true,
      "stateMutability": "payable",
      "type": "function"
    },
    {
      "constant": true,
      "inputs": [
        {
          "internalType": "uint256",
          "name": "_indexRing",
          "type": "uint256"
        }
      ],
      "name": "getInfoRing",
      "outputs": [
        {
          "internalType": "uint256",
          "name": "",
          "type": "uint256"
        },
        {
          "internalType": "uint256",
          "name": "",
          "type": "uint256"
        },
        {
          "internalType": "uint8",
          "name": "",
          "type": "uint8"
        },
        {
          "internalType": "uint256",
          "name": "",
          "type": "uint256"
        },
        {
          "internalType": "uint256",
          "name": "",
          "type": "uint256"
        },
        {
          "internalType": "uint256",
          "name": "",
          "type": "uint256"
        },
        {
          "internalType": "uint256",
          "name": "",
          "type": "uint256"
        },
        {
          "internalType": "uint256",
          "name": "",
          "type": "uint256"
        },
        {
          "internalType": "bool",
          "name": "",
          "type": "bool"
        }
      ],
      "payable": false,
      "stateMutability": "view",
      "type": "function"
    },
    {
      "constant": true,
      "inputs": [],
      "name": "getActivePlans",
      "outputs": [
        {
          "internalType": "bool[]",
          "name": "",
          "type": "bool[]"
        }
      ],
      "payable": false,
      "stateMutability": "view",
      "type": "function"
    },
    {
      "constant": true,
      "inputs": [],
      "name": "getInvestedPlans",
      "outputs": [
        {
          "internalType": "uint256[]",
          "name": "",
          "type": "uint256[]"
        }
      ],
      "payable": false,
      "stateMutability": "view",
      "type": "function"
    },
    {
      "constant": true,
      "inputs": [],
      "name": "getContractBalance",
      "outputs": [
        {
          "internalType": "uint256",
          "name": "",
          "type": "uint256"
        }
      ],
      "payable": false,
      "stateMutability": "view",
      "type": "function"
    },
    {
      "constant": true,
      "inputs": [
        {
          "internalType": "uint256",
          "name": "_indexInvestor",
          "type": "uint256"
        }
      ],
      "name": "getTotalInvested",
      "outputs": [
        {
          "internalType": "uint256",
          "name": "",
          "type": "uint256"
        }
      ],
      "payable": false,
      "stateMutability": "view",
      "type": "function"
    },
    {
      "constant": true,
      "inputs": [],
      "name": "getIndexInvestor",
      "outputs": [
        {
          "internalType": "uint256",
          "name": "",
          "type": "uint256"
        }
      ],
      "payable": false,
      "stateMutability": "view",
      "type": "function"
    },
    {
      "constant": true,
      "inputs": [],
      "name": "getPlans",
      "outputs": [
        {
          "internalType": "uint8[]",
          "name": "",
          "type": "uint8[]"
        }
      ],
      "payable": false,
      "stateMutability": "view",
      "type": "function"
    },
    {
      "constant": true,
      "inputs": [],
      "name": "getTotalStaked",
      "outputs": [
        {
          "internalType": "uint256",
          "name": "",
          "type": "uint256"
        }
      ],
      "payable": false,
      "stateMutability": "view",
      "type": "function"
    },
    {
      "constant": true,
      "inputs": [],
      "name": "getInsuranceFunds",
      "outputs": [
        {
          "internalType": "uint256",
          "name": "",
          "type": "uint256"
        }
      ],
      "payable": false,
      "stateMutability": "view",
      "type": "function"
    },
    {
      "constant": true,
      "inputs": [],
      "name": "getReferendsFunds",
      "outputs": [
        {
          "internalType": "uint256",
          "name": "",
          "type": "uint256"
        }
      ],
      "payable": false,
      "stateMutability": "view",
      "type": "function"
    }
  ],
  "bytecode": "0x61014060405260006080908152600160a052600260c052600360e0526004610100526005610120526200003790600d906006620003dd565b503480156200004557600080fd5b50620000596001600160e01b036200007116565b610fa06007556103e8600f556107d0600e5562000517565b600b6020526702c68af0bb1400007fdf7de25b7f1fd6d0b5205f0e18f1f35bd7b8d84cce336588d184533ce43a6f768190556706f05b59d3b2000060008051602062001ab683398151915255670de0b6b3a764000060008051602062001a5683398151915255674563918244f400007f64c15cc42be7899b001f818cf4433057002112c418d1d3a67cd5cb453051d33e55678ac7230489e8000060008051602062001a76833981519152556802b5e3af16b188000060008051602062001a968339815191525560008080526200015e919067058d15e176280000906003906001600160e01b03620002a716565b60016000819052600b60205260008051602062001ab6833981519152546200019c916729a2241af62c0000906007906001600160e01b03620002a716565b60026000819052600b60205260008051602062001a5683398151915254620001da91678ac7230489e8000090600a906001600160e01b03620002a716565b60036000819052600b6020527f64c15cc42be7899b001f818cf4433057002112c418d1d3a67cd5cb453051d33e54620002279167ad78ebc5ac62000090806001600160e01b03620002a716565b60046000819052600b60205260008051602062001a7683398151915254620002669168015af1d78b58c40000906003906001600160e01b03620002a716565b60056000819052600b60205260008051602062001a9683398151915254620002a5916806c6b935b8bbd40000906003906001600160e01b03620002a716565b565b600c604051806101200160405280600e548152602001600081526020018681526020018581526020018460ff168152602001600060405190808252806020026020018201604052801562000305578160200160208202803883390190505b5081524260208083019190915260ff8581166040808501919091526000606094850181905286546001808201808a559883529185902087516008909202019081558685015191810191909155908501516002820155928401516003840155608084015160048401805460ff19169190921617905560a083015180516200039292600585019201906200048a565b5060c0820151600682015560e0820151600790910180546101009384015160ff1990911660ff9093169290921761ff0019169115159092021790555050600e80546001019055505050565b82805482825590600052602060002090601f01602090048101928215620004785791602002820160005b838211156200044757835183826101000a81548160ff021916908360ff160217905550926020019260010160208160000104928301926001030262000407565b8015620004765782816101000a81549060ff021916905560010160208160000104928301926001030262000447565b505b5062000486929150620004d6565b5090565b828054828255906000526020600020908101928215620004c8579160200282015b82811115620004c8578251825591602001919060010190620004ab565b5062000486929150620004fa565b620004f791905b808211156200048657805460ff19168155600101620004dd565b90565b620004f791905b8082111562000486576000815560010162000501565b61152f80620005276000396000f3fe6080604052600436106102465760003560e01c8063817b1cd211610139578063a8bc2d73116100b6578063d6a63c9f1161007a578063d6a63c9f14610319578063d94a862b1461069f578063dc184e70146106b4578063e1f2549c146106c9578063f596474214610720578063f6ec91d51461073557610246565b8063a8bc2d73146105c1578063b36deed0146105d6578063c2fd75ee146105eb578063d2ccac1714610600578063d35b02ac1461062a57610246565b806390d98e7e116100fd57806390d98e7e146105475780639ba714fe1461055c578063a62e64a314610571578063a6b81b9514610597578063a77a5173146105ac57610246565b8063817b1cd2146104d75780638199fb6a146104ec57806381e170de1461050157806383ac44e61461051657806383b6cc16146103e057610246565b806325ccbc43116101c757806340880f561161018b57806340880f5614610436578063434350cf1461044b57806343fe832c146104605780634f437b82146104755780636f9fb98a146104c257610246565b806325ccbc43146103cb57806328e7cef5146103e05780633558b393146103f5578063381da05b1461040a5780633ccfd60b1461041f57610246565b80630ce535241161020e5780630ce535241461032e578063108d5f3e1461035957806312a30e5b1461036e57806314dd60ce146103835780631e2575c31461039857610246565b806301c234a81461024b57806304819e7b146102725780630917e7761461029f57806309aca697146102b457806309ebc66f14610319575b600080fd5b34801561025757600080fd5b5061026061074a565b60408051918252519081900360200190f35b34801561027e57600080fd5b506102606004803603602081101561029557600080fd5b503560ff16610750565b3480156102ab57600080fd5b50610260610762565b3480156102c057600080fd5b506102c9610768565b60408051602080825283518183015283519192839290830191858101910280838360005b838110156103055781810151838201526020016102ed565b505050509050019250505060405180910390f35b34801561032557600080fd5b50610260610872565b34801561033a57600080fd5b50610343610878565b6040805160ff9092168252519081900360200190f35b34801561036557600080fd5b5061026061087d565b34801561037a57600080fd5b50610260610883565b34801561038f57600080fd5b5061026061088f565b3480156103a457600080fd5b50610260600480360360208110156103bb57600080fd5b50356001600160a01b0316610895565b3480156103d757600080fd5b506102606108a7565b3480156103ec57600080fd5b506102606108ad565b34801561040157600080fd5b506102606108b2565b34801561041657600080fd5b506102606108be565b34801561042b57600080fd5b506104346108c4565b005b34801561044257600080fd5b5061026061099b565b34801561045757600080fd5b506102606109a7565b34801561046c57600080fd5b506102c96109ac565b34801561048157600080fd5b5061049f6004803603602081101561049857600080fd5b5035610ac2565b604080516001600160a01b03909316835260208301919091528051918290030190f35b3480156104ce57600080fd5b50610260610ae7565b3480156104e357600080fd5b50610260610aeb565b3480156104f857600080fd5b50610343610af1565b34801561050d57600080fd5b50610260610af6565b34801561052257600080fd5b5061052b610afc565b604080516001600160a01b039092168252519081900360200190f35b34801561055357600080fd5b50610260610b0b565b34801561056857600080fd5b50610343610b11565b6104346004803603604081101561058757600080fd5b5060ff8135169060200135610b16565b3480156105a357600080fd5b50610260610ecb565b3480156105b857600080fd5b50610260610ed7565b3480156105cd57600080fd5b50610260610eea565b3480156105e257600080fd5b50610260610ef6565b3480156105f757600080fd5b50610260610efc565b34801561060c57600080fd5b506102606004803603602081101561062357600080fd5b5035610f08565b34801561063657600080fd5b506106546004803603602081101561064d57600080fd5b5035611014565b60408051998a5260208a019890985260ff909616888801526060880194909452608087019290925260a086015260c085015260e0840152151561010083015251908190036101200190f35b3480156106ab57600080fd5b506102c9611172565b3480156106c057600080fd5b5061052b6111e8565b3480156106d557600080fd5b506106f3600480360360208110156106ec57600080fd5b50356111f7565b60408051958652602086019490945284840192909252606084015215156080830152519081900360a00190f35b34801561072c57600080fd5b50610260611229565b34801561074157600080fd5b5061052b61122e565b6103e881565b600b6020526000908152604090205481565b60035490565b33600090815260086020526040808220548151600680825260e08201909352606093919284919081602001602082028038833901905050905060005b60008481526009602052604090206002015481101561086a5760008481526009602052604090206002018054829081106107da57fe5b600091825260209091206004600590920201015460ff166108625760008481526009602052604090206002018054600c91908390811061081657fe5b9060005260206000209060050201600201548154811061083257fe5b90600052602060002090600802016000015482848151811061085057fe5b60209081029190910101526001909201915b6001016107a4565b509250505090565b61012c81565b600381565b60055481565b670de0b6b3a764000081565b60075481565b60086020526000908152604090205481565b610fa081565b60c881565b6729a2241af62c000081565b60055490565b33600090815260086020526040902054806109105760405162461bcd60e51b815260040180806020018281038252602b81526020018061146f602b913960400191505060405180910390fd5b600061091b82610f08565b905060006109288261123d565b905061093a828263ffffffff61126816565b604051909250339083156108fc029084906000818181858888f1935050505015801561096a573d6000803e3d6000fd5b5060405133907f1bb67c103aed1be2a2ae4411a307fb8bc9600f68effbfd17b8d83464ed405c7b90600090a2505050565b6702c68af0bb14000081565b600581565b3360009081526008602052604090819020548151600680825260e0820190935260609283919081602001602082028038833901905050905060005b600083815260096020526040902060020154811015610abb576000838152600960205260409020600201805482908110610a1d57fe5b600091825260209091206004600590920201015460ff16610ab35760008381526009602052604081206002018054600c919084908110610a5957fe5b90600052602060002090600502016002015481548110610a7557fe5b6000918252602090912060076008909202010154835160ff9091169150600190849083908110610aa157fe5b91151560209283029190910190910152505b6001016109e7565b5091505090565b600960205260009081526040902080546001909101546001600160a01b039091169082565b4790565b60035481565b600781565b60065481565b6001546001600160a01b031681565b60045490565b600f81565b60ff82166000908152600b60205260409020543414610b665760405162461bcd60e51b81526004018080602001828103825260408152602001806114bb6040913960400191505060405180910390fd5b3360009081526008602052604081205480610bbf5750600780543360008181526008602090815260408083208590559382526009905282812080546001600160a01b031916909217909155915480835291206001018190555b600d5460008281526009602052604090206002015410610c26576040805162461bcd60e51b815260206004820152601c60248201527f4d6178696d756d20706f737369626c6520696e766573746d656e747300000000604482015290519081900360640190fd5b60005b600c54811015610dd3578460ff16600c8281548110610c4457fe5b600091825260209091206007600890920201015460ff16148015610caf5750600c8181548110610c7057fe5b6000918252602090912060046008909202010154600c805460ff9092169183908110610c9857fe5b906000526020600020906008020160050180549050105b15610dcb57809250610cbf6113e9565b506040805160a081018252600f5480825260208083018681528385018881524260608601908152600060808701818152958152600a85528781208751815584516001828101919091558451600280840191909155845160038085019190915589516004948501805491151560ff199283161790558e865260098a529b8520820180548085018255908652989094208a5160059099020197885595519087015592519385019390935551918301919091559151910180549115159190931617909155600c805485908110610d8e57fe5b60009182526020808320600f8054600560089095029092019390930180546001818101835591865292909420909101558054909101905550610dd3565b600101610c29565b50610e07600c8381548110610de457fe5b9060005260206000209060080201600201546003546112c590919063ffffffff16565b600355600c805483908110610e1857fe5b906000526020600020906008020160020154600c8381548110610e3757fe5b60009182526020909120600160089092020101805490910190558215610e815760008381526009602090815260408220600754600390910180546001810182559084529190922001555b600780546001019055604080513381526020810184905281517f9a7b89cf778462f98a9b59f99121c720927a5c37ffaaba0346f77326622a8aeb929181900390910190a150505050565b678ac7230489e8000081565b3360009081526008602052604090205490565b67058d15e17628000081565b60045481565b6706f05b59d3b2000081565b600081610f465760405162461bcd60e51b815260040180806020018281038252602b81526020018061146f602b913960400191505060405180910390fd5b6000805b60008481526009602052604090206002015481101561100d576000848152600960205260409020600201805482908110610f8057fe5b600091825260209091206004600590920201015460ff1615610fa157611005565b6000848152600960205260409020600201805461100291600c9184908110610fc557fe5b90600052602060002090600502016002015481548110610fe157fe5b906000526020600020906008020160020154836112c590919063ffffffff16565b91505b600101610f4a565b5092915050565b600080600080600080600080600061102a61141a565b600c8b8154811061103757fe5b6000918252602091829020604080516101208101825260089093029091018054835260018101548385015260028101548383015260038101546060840152600481015460ff1660808401526005810180548351818702810187019094528084529394919360a0860193928301828280156110d057602002820191906000526020600020905b8154815260200190600101908083116110bc575b50505050508152602001600682015481526020016007820160009054906101000a900460ff1660ff1660ff1681526020016007820160019054906101000a900460ff1615151515815250509050806000015181602001518260e001518360400151846060015185608001518660a00151518760c001518861010001518360ff169350995099509950995099509950995099509950509193959799909294969850565b6060600d8054806020026020016040519081016040528092919081815260200182805480156111de57602002820191906000526020600020906000905b825461010083900a900460ff168152602060019283018181049485019490930390920291018084116111af5790505b5050505050905090565b6002546001600160a01b031681565b600a60205260009081526040902080546001820154600283015460038401546004909401549293919290919060ff1685565b60fa81565b6000546001600160a01b031681565b60006112626103e86112568460fa63ffffffff61132616565b9063ffffffff61137f16565b92915050565b6000828211156112bf576040805162461bcd60e51b815260206004820152601e60248201527f536166654d6174683a207375627472616374696f6e206f766572666c6f770000604482015290519081900360640190fd5b50900390565b60008282018381101561131f576040805162461bcd60e51b815260206004820152601b60248201527f536166654d6174683a206164646974696f6e206f766572666c6f770000000000604482015290519081900360640190fd5b9392505050565b60008261133557506000611262565b8282028284828161134257fe5b041461131f5760405162461bcd60e51b815260040180806020018281038252602181526020018061149a6021913960400191505060405180910390fd5b60008082116113d5576040805162461bcd60e51b815260206004820152601a60248201527f536166654d6174683a206469766973696f6e206279207a65726f000000000000604482015290519081900360640190fd5b60008284816113e057fe5b04949350505050565b6040518060a00160405280600081526020016000815260200160008152602001600081526020016000151581525090565b60405180610120016040528060008152602001600081526020016000815260200160008152602001600060ff1681526020016060815260200160008152602001600060ff168152602001600015158152509056fe43616e206e6f742077697468647261772062656361757365206e6f20616e7920696e766573746d656e7473536166654d6174683a206d756c7469706c69636174696f6e206f766572666c6f7754686520616d6f756e7420746f20626520696e766573746564206d75737420626520746865206f6e65207265717565737465642062792074686520706c616e2ea265627a7a723158201bb07ff77fba9a32b001077b4975c7849ea525e93a0f95b0421a0d03ae22d93a64736f6c63430005100032a50eece07c7db1631545c0069bd8f5f54d5935e215d59097edf258a44ba9163412d0c11577e2f0950f57c455c117796550b79f444811db8ba2f69c57b646c784ebae6141bae5521e99e0a8d610356b0f501fea54980b59c84841db43ba7204f472c6bfb7988af3a1efa6568f02a999bc52252641c659d85961ca3d372b57d5cf",
  "source": "// SPDX-License-Identifier: MIT\npragma solidity >=0.4.21 <0.7.0;\n\ncontract RingBNB {\n    using SafeMath for uint256;\n\n    uint256 public constant REFERRER_CODE = 4000;\n    uint256 public constant PENALTY_STEP = 250;\n    uint256 public constant PERCENTS_DIVIDER = 1000;\n    uint256 public constant MAX_TOP_REFERENTS = 5;\n\n    uint256 public constant DEVELOPER_RATE = 300;\n    uint256 public constant REFERRAL_REWARD_RATE = 300;\n    uint256 public constant RESERVE_RATE = 200;\n    uint256 public constant MARKETING_RATE = 200;\n\n    uint256 public constant AMOUNT_BY_FIRE = 1 ether;\n    uint256 public constant AMOUNT_BY_EARTH = 0.5 ether;\n    uint256 public constant AMOUNT_BY_WATER = 0.2 ether;\n    uint256 public constant REWARD_BY_FIRE = 10 ether;\n    uint256 public constant REWARD_BY_EARTH = 3 ether;\n    uint256 public constant REWARD_BY_WATER = 0.4 ether;\n    uint8 public constant MAX_PARTICIPANT_FIRE = 15;\n    uint8 public constant MAX_PARTICIPANT_EARTH = 7;\n    uint8 public constant MAX_PARTICIPANT_WATER = 3;\n\n    address payable public developerAccount;\n    address payable public marketingAccount;\n    address payable public reserveAccount;\n    uint256 public totalStaked;\n    uint256 public insuranceFunds;\n    uint256 public totalFundsTopReferents;\n    uint256 public lastPayment;\n\n    uint256 public latestReferredCode;\n    mapping(address => uint256) public address2index;\n    mapping(uint256 => Investor) public index2Investor;\n    mapping(uint256 => Investment) public index2Investment;\n    mapping(uint8 => uint256) public plan2amount;\n\n    Ring[] internal rings;\n    uint8[] internal plans = [0,1,2,3,4,5];\n    uint256 internal ringIndex;\n    uint256 internal indexInvestment;\n\n\n    struct Ring {\n        uint256 index;\n        uint256 balance;\n        uint256 amount;\n        uint256 reward;\n        uint8 maxInvestors;\n        uint256[] investments;\n        uint256 startDate;\n        uint8 plan;\n        bool finished;\n    }\n\n    struct Investor {\n        address payable addr;\n        uint256 referrer;\n        Investment[] investments;\n        uint256[] refs;\n    }\n\n    struct Investment {\n        uint256 indexInvestment;\n        uint256 indexInvestor;\n        uint256 ring;\n        uint256 investmentDate;\n        bool payed;\n    }\n\n    event onInvest(address _address, uint256 _ringIndex);\n    event onWithdrawn(address indexed user);\n    event onRingComplete(uint256 _indexRing);\n\n    constructor() public {\n        _initPlans();\n        indexInvestment = 0;\n        latestReferredCode = REFERRER_CODE;\n        indexInvestment = 1000;\n        ringIndex = 2000;\n    }\n\n    function _initPlans() private{\n        plan2amount[0] = 0.2 ether;\n        plan2amount[1] = 0.5 ether;\n        plan2amount[2] = 1 ether;\n        plan2amount[3] = 5 ether;\n        plan2amount[4] = 10 ether;\n        plan2amount[5] = 50 ether;\n\n        createRing(plan2amount[0], 0.4 ether, 3, 0);\n        createRing(plan2amount[1], 3 ether, 7, 1);\n        createRing(plan2amount[2], 10 ether, 10, 2);\n        createRing(plan2amount[3], 12.5 ether, 3, 3);\n        createRing(plan2amount[4], 25 ether, 3, 4);\n        createRing(plan2amount[5], 125 ether, 3, 5);\n    }\n\n    function withdraw() public{\n        uint256 _indexInvestor = address2index[msg.sender];\n        require(_indexInvestor != 0, \"Can not withdraw because no any investments\");\n\n        uint256 _totalAmount = getTotalInvested(_indexInvestor);\n        uint256 _penaltyAmount = calculatePenalty(_totalAmount);\n\n        _totalAmount = _totalAmount.sub(_penaltyAmount);\n\n        msg.sender.transfer(_totalAmount);\n\n        emit onWithdrawn(msg.sender);\n    }\n\n    function invest(uint8 _plan, uint256 _referrer) public payable{\n        require(msg.value == plan2amount[_plan], \"The amount to be invested must be the one requested by the plan.\");\n\n        uint256 _ringInvested;\n        uint256 _indexInvestor = address2index[msg.sender];\n\n        if(_indexInvestor == 0) {\n            // Create if not exists\n            address2index[msg.sender] = latestReferredCode;\n            index2Investor[latestReferredCode].addr = msg.sender;\n            index2Investor[latestReferredCode].referrer = latestReferredCode;\n            _indexInvestor = latestReferredCode;\n        }\n\n        require(index2Investor[_indexInvestor].investments.length < plans.length, \"Maximum possible investments\");\n\n        for(uint256 i=0;i<rings.length;i++) {\n            if(rings[i].plan == _plan && rings[i].investments.length < rings[i].maxInvestors){\n                _ringInvested = i;\n                Investment memory _invest = Investment(indexInvestment, _indexInvestor, _ringInvested, block.timestamp, false);\n\n                index2Investment[indexInvestment] = _invest;\n                index2Investor[_indexInvestor].investments.push(_invest);\n                rings[_ringInvested].investments.push(indexInvestment);\n                indexInvestment++;\n                break;\n            }\n        }\n\n        totalStaked = totalStaked.add(rings[_ringInvested].amount);\n        rings[_ringInvested].balance += rings[_ringInvested].amount;\n\n        if(_referrer != 0) {\n            index2Investor[_referrer].refs.push(latestReferredCode);\n        }\n        \n        latestReferredCode++;\n        emit onInvest(msg.sender, _ringInvested);\n    }\n\n    function createRing(uint256 _amount, uint256 _reward,\n                        uint8 _maxInvestor, uint8 _plan) internal{\n        rings.push(Ring({\n            index : ringIndex,\n            balance : 0,\n            amount : _amount,\n            reward : _reward,\n            maxInvestors : _maxInvestor,\n            startDate : block.timestamp,\n            plan : _plan,\n            finished : false,\n            investments : new uint[](0)\n        }));\n        ringIndex++;\n    }\n\n    /*function changeOnRing(uint256 _indexRing) public{\n        if(rings[_indexRing].maxInvestors == rings[_indexRing].investments.length) {\n            divideRing(_indexRing);\n            emit onRingComplete(_indexRing);\n        }\n    }\n\n    function payRing(uint256 _indexRing) private{\n        require(rings[_indexRing].finished == true, \"This ring has already been paid for.\");\n        require(rings[_indexRing].investments.length < rings[_indexRing].maxInvestors, \"Not all investors are there yet.\");\n\n        uint256 _reward = rings[_indexRing].reward;\n        uint256 commissionAmount = rings[_indexRing].amount.mul(rings[_indexRing].maxInvestors).sub(_reward);\n        uint256 developAmount = commissionAmount.mul(DEVELOPER_RATE).div(PERCENTS_DIVIDER);\n        uint256 referralAmount = commissionAmount.mul(REFERRAL_REWARD_RATE).div(PERCENTS_DIVIDER);\n        uint256 reserveAmount = commissionAmount.mul(RESERVE_RATE).div(PERCENTS_DIVIDER);\n        uint256 marketingAmmount = commissionAmount.mul(MARKETING_RATE).div(PERCENTS_DIVIDER);\n\n        index2Investor[index2Investment[rings[_indexRing].investments[0]].indexInvestor].addr.transfer(_reward);\n        insuranceFunds += reserveAmount;\n        totalFundsTopReferents += referralAmount;\n\n        developerAccount.transfer(developAmount);\n        reserveAccount.transfer(reserveAmount);\n        marketingAccount.transfer(marketingAmmount);\n\n        rings[_indexRing].finished = true;\n    }\n\n    function payTopReferents() private{\n    }\n\n    function getTopReferents() public view returns (uint256[] memory){\n        uint256 busyPlaces;\n        uint256[] memory topReferents = new uint256[](10);\n        for(uint256 i=4000;i<latestReferredCode;i++) {\n            if(i < 4010) {\n                topReferents[busyPlaces] = i;\n            }else {\n                for(uint256 j=0;j<topReferents.length;j++) {\n                    if(index2Investor[i].refs.length > index2Investor[topReferents[j]].refs.length) {\n                        topReferents[j] = i;\n                    }\n                }\n            }\n        }\n        \n        return topReferents;\n    }\n\n    function divideRing(uint256 _indexRing) private{\n        uint256 _amount;\n        uint256 _reward;\n        uint8 _maxInvestors;\n        Level _level;\n        uint256 indexRingOne = ringIndex;\n        ringIndex++;\n        uint256 indexRingTwo = ringIndex;\n        uint256[] memory investsToRingOne;\n        uint256[] memory investsToRingTwo;\n\n        if(rings[_indexRing].level == Level.WATER) {\n            investsToRingOne = new uint256[](1);\n            investsToRingTwo = new uint256[](1);\n            _amount = AMOUNT_BY_WATER;\n            _reward = REWARD_BY_WATER;\n            _maxInvestors = MAX_PARTICIPANT_WATER;\n            _level = Level.WATER;\n            investsToRingOne[0] = rings[_indexRing].investments[1];\n            investsToRingTwo[0] = rings[_indexRing].investments[2];\n        }else if(rings[_indexRing].level == Level.EARTH) {\n            investsToRingOne = new uint256[](3);\n            investsToRingTwo = new uint256[](3);\n            _amount = AMOUNT_BY_EARTH;\n            _reward = REWARD_BY_EARTH;\n            _maxInvestors = MAX_PARTICIPANT_EARTH;\n            _level = Level.EARTH;\n            investsToRingOne[0] = rings[_indexRing].investments[1];\n            investsToRingOne[1] = rings[_indexRing].investments[3];\n            investsToRingOne[2] = rings[_indexRing].investments[4];\n\n            investsToRingTwo[0] = rings[_indexRing].investments[2];\n            investsToRingTwo[1] = rings[_indexRing].investments[5];\n            investsToRingTwo[2] = rings[_indexRing].investments[6];\n        }else {\n            investsToRingOne = new uint256[](7);\n            investsToRingTwo = new uint256[](7);\n            _amount = AMOUNT_BY_FIRE;\n            _reward = REWARD_BY_FIRE;\n            _maxInvestors = MAX_PARTICIPANT_FIRE;\n            _level = Level.FIRE;\n            investsToRingOne[0] = rings[_indexRing].investments[1];\n            investsToRingOne[1] = rings[_indexRing].investments[3];\n            investsToRingOne[2] = rings[_indexRing].investments[4];\n            investsToRingOne[3] = rings[_indexRing].investments[7];\n            investsToRingOne[4] = rings[_indexRing].investments[8];\n            investsToRingOne[5] = rings[_indexRing].investments[9];\n            investsToRingOne[6] = rings[_indexRing].investments[10];\n\n            investsToRingTwo[0] = rings[_indexRing].investments[2];\n            investsToRingTwo[1] = rings[_indexRing].investments[5];\n            investsToRingTwo[2] = rings[_indexRing].investments[6];\n            investsToRingTwo[3] = rings[_indexRing].investments[11];\n            investsToRingTwo[4] = rings[_indexRing].investments[12];\n            investsToRingTwo[5] = rings[_indexRing].investments[13];\n            investsToRingTwo[6] = rings[_indexRing].investments[14];\n        }\n\n        rings.push(Ring({\n            index : indexRingOne,\n            amount : _amount,\n            reward : _reward,\n            maxInvestors : _maxInvestors,\n            startDate : block.timestamp,\n            level : _level,\n            balance : _amount.mul(investsToRingOne.length),\n            finished : false,\n            investments : investsToRingOne\n        }));\n\n        rings.push(Ring({\n            index : indexRingTwo,\n            amount : _amount,\n            reward : _reward,\n            maxInvestors : _maxInvestors,\n            startDate : block.timestamp,\n            level : _level,\n            balance : _amount.mul(investsToRingTwo.length),\n            finished : false,\n            investments : investsToRingTwo\n        }));\n        ringIndex++;\n    }\n    */\n\n    function calculatePenalty(uint256 amount) pure private returns (uint256){\n        return amount.mul(PENALTY_STEP).div(PERCENTS_DIVIDER);\n    }\n    /************************************************ \n                            VIEWS\n    *************************************************/\n\n    function getInfoRing(uint256 _indexRing) public view returns (uint256,uint256,uint8,uint256,uint256,uint256,uint256,uint256,bool) {\n        Ring memory ring = rings[_indexRing];\n        return (\n            ring.index,\n            ring.balance,\n            ring.plan,\n            ring.amount,\n            ring.reward,\n            ring.maxInvestors,\n            ring.investments.length,\n            ring.startDate,\n            ring.finished\n        );\n    }\n\n    function getActivePlans() public view returns (bool[] memory) {\n        uint256 investor = address2index[msg.sender];\n        bool[] memory _activePlans = new bool[](6);\n\n        for(uint256 i=0;i<index2Investor[investor].investments.length;i++) {\n            if(!index2Investor[investor].investments[i].payed) {\n                uint8 _plan = rings[index2Investor[investor].investments[i].ring].plan;\n                _activePlans[_plan] = true;\n            }\n        }\n        return _activePlans;\n    }\n\n    function getInvestedPlans() public view returns (uint256[] memory){\n        uint256 investor = address2index[msg.sender];\n        uint index = 0;\n        uint256[] memory _investedPlans = new uint256[](6);\n\n        for(uint256 i=0;i<index2Investor[investor].investments.length;i++) {\n            if(!index2Investor[investor].investments[i].payed) {\n                _investedPlans[index] = rings[index2Investor[investor].investments[i].ring].index;\n                index++;\n            }\n        }\n        return _investedPlans;\n    }\n\n    function getContractBalance() public view returns (uint256) {\n        return address(this).balance;\n    }\n\n    function getTotalInvested(uint256 _indexInvestor) public view returns (uint256) {\n        require(_indexInvestor != 0, \"Can not withdraw because no any investments\");\n        uint256 totalAmount;\n        for(uint256 i=0;i<index2Investor[_indexInvestor].investments.length;i++) {\n            if(index2Investor[_indexInvestor].investments[i].payed) {\n                continue;\n            }\n\n            totalAmount = totalAmount.add(rings[index2Investor[_indexInvestor].investments[i].ring].amount);\n        }\n\n        return totalAmount;\n    }\n\n    function getIndexInvestor() public view returns (uint256){\n        return address2index[msg.sender];\n    }\n\n    function getPlans() public view returns (uint8[] memory) {\n        return plans;\n    }\n\n    function getTotalStaked() public view returns (uint256){\n        return totalStaked;\n    }\n\n    function getInsuranceFunds() public view returns (uint256){\n        return insuranceFunds;\n    }\n\n    function getReferendsFunds() public view returns (uint256){\n        return totalFundsTopReferents;\n    }\n}\n\nlibrary SafeMath {\n\n    function add(uint256 a, uint256 b) internal pure returns (uint256) {\n        uint256 c = a + b;\n        require(c >= a, \"SafeMath: addition overflow\");\n\n        return c;\n    }\n\n    function sub(uint256 a, uint256 b) internal pure returns (uint256) {\n        require(b <= a, \"SafeMath: subtraction overflow\");\n        uint256 c = a - b;\n\n        return c;\n    }\n\n    function mul(uint256 a, uint256 b) internal pure returns (uint256) {\n        if (a == 0) {\n            return 0;\n        }\n\n        uint256 c = a * b;\n        require(c / a == b, \"SafeMath: multiplication overflow\");\n\n        return c;\n    }\n\n    function div(uint256 a, uint256 b) internal pure returns (uint256) {\n        require(b > 0, \"SafeMath: division by zero\");\n        uint256 c = a / b;\n\n        return c;\n    }\n}",
  "sourcePath": "/Users/brian.ramirez/Dev/react-ring-bnb-final/contracts/RingBNB.sol",
  "compiler": {
    "name": "solc",
    "version": "0.5.16+commit.9c3226ce.Emscripten.clang"
  },
  "schemaVersion": "3.3.4",
  "updatedAt": "2021-04-16T19:22:08.643Z",
  "networkType": "ethereum",
  "devdoc": {
    "methods": {}
  },
  "userdoc": {
    "methods": {
      "getInfoRing(uint256)": {
        "notice": "**********************************************  VIEWS************************************************"
      }
    }
  }
}